:020000040800F2
:10000000702C00200101000843280008771E00081A
:10001000412800082D090008B52B00080000000049
:10002000000000000000000000000000032A00089B
:100030002F09000800000000012A0008052A000816
:100040001B0100081B0100081B0100081B01000820
:100050001B0100081B0100081B0100081B01000810
:100060001B0100081B0100081B0100081B01000800
:100070001B0100081B0100081B0100081B010008F0
:100080001B0100081B0100081B0100081B010008E0
:100090001B0100081B0100081B0100081B010008D0
:1000A0001B0100081B0100081B0100081B010008C0
:1000B0001B0100081B0100081B0100081B010008B0
:1000C0001B0100081B0100081B0100081B010008A0
:1000D0001B0100081B0100081B0100081B01000890
:1000E0001B0100081B0100081B010008DFF80CD0F1
:1000F00000F0A0FB00480047C5340008702C002029
:100100000648804706480047FEE7FEE7FEE7FEE7B1
:10011000FEE7FEE7FEE7FEE7FEE7FEE7812A0008CE
:10012000ED000008202A04DB203A21FA02F0002129
:10013000704721FA02F3D040C2F1200291400843F7
:1001400019467047D2B201E000F8012B491EFBD2DC
:1001500070470022F6E710B513460A4604461946D2
:10016000FFF7F0FF204610BD80EA010210B502F053
:100170000043400022D04A001FD0010E01EB126163
:10018000C0F35600C2F3560240F4000042F40002ED
:10019000A0FB022000047F39140400D0401C50EA68
:1001A000124001D44000491EC2B20C0604EBD0102C
:1001B000401C4008802A02D003E0002010BD20F03F
:1001C0000100002900DA0020184310BD30B480EA95
:1001D000010202F0004530F0004221F0004013D04F
:1001E00090B1C30DD40DC2F31601C0F31600E41A8A
:1001F00041F4000140F400027D34914201D3641CBB
:1002000000E04900002C02DA30BC002070474FF4B7
:1002100000000023914201D3891A034340084FEAAA
:100220004101F7D151B1914202D14FF0004105E0B7
:1002300002D24FF0010101E06FF0010103EBC45065
:10024000284430BC00F0C3B92DE9FE4F804681EA56
:100250000300C00F0C46009021F0004123F0004540
:10026000B8EB0200A94105D24046214690461C4603
:100270000B46024623F00040104347D0270DC7F33A
:100280000A00C3F30A510290401A019040286BDA29
:10029000C3F3130040F4801B0098924620B1002362
:1002A000D2EB030A63EB0B0B01985946C0F14002F5
:1002B000504600F06BF906460D4650465946019AE5
:1002C00000F073F910EB08006141002487EA115235
:1002D00084EAE7731A4340D0009A62B3019A012A74
:1002E0004FEA075215DC001B61EB02014FF00042A0
:1002F00002EA0752CDE90042001C41F58011324666
:100300002B4600F0AAF903B0BDE8F08F4046214625
:10031000F9E7001B61EB0201001C41F58013001896
:100320005B412018A2F5001747EB030140EAD570A6
:10033000B6196D4111E06D084FEA360645EAC07501
:100340004FEA0752001B61EB0201001C41F58011CE
:1003500049084FEA30000019514132462B4603B09C
:10036000BDE8F04F00F06AB9009801224000002378
:10037000D0EB020263EBE073009821464FEAE07491
:10038000B8EB000061EB0401E9E783F000435BE7B1
:1003900081F0004158E72DE9FE4F81EA030404F0A3
:1003A000004421F0004100944FF0000B23F0004383
:1003B00050EA01045ED052EA03045BD0C3F30A544E
:1003C000C1F30A552C44A4F2F3340194A0FB025467
:1003D000C1F3130141F48011C3F3130343F48013F9
:1003E00001FB024400FB034E840A970A44EA81544D
:1003F00047EA8357A4FB076802958D0A05FB07852A
:100400004FEA932C04FB0C542705029D4FEA065833
:1004100047EA1637B5EB08056EEB070C870E920E10
:1004200047EA811742EA8312A7FB0201B6EB0B01F0
:1004300064EB00042B0D43EA0C335E1844EB1C50B4
:10044000DA465146E7FB0201C5F313044FEA0B33CA
:1004500043EA14534FEA0432019C43EA0603A4F131
:100460000C040294009CCDE900B400F0F6F803B04F
:10047000BDE8F08F00200146F9E770B521F0004398
:1004800003430CD0C1F30A550024D5EB040564EBFB
:100490000403D617AD1AB34102DB0020014670BD3C
:1004A000201841EB025170BD96230022114600F046
:1004B00097B80EB540F2334102910021CDE9001109
:1004C0000A460B4600F0C9F803B000BD00F0004238
:1004D00020F00040C10DC0F3160040F400007F2959
:1004E00001DA00207047962903DCC1F19601C8406B
:1004F00001E096398840002AF4D04042704730B578
:100500000B46014600202022012409E021FA02F5D1
:100510009D4205D303FA02F5491B04FA02F528446B
:10052000151EA2F10102F1DC30BD2DE9F05F054698
:10053000002092469B4688460646814640241BE0A2
:100540002846414647462246FFF7ECFD53465A46A9
:10055000C01A914110D311461846224600F016F8F1
:100560002D1A67EB01084F4622460120002100F0BA
:100570000DF817EB00094E41201EA4F10104DFDC49
:10058000484631462A464346BDE8F09F202A04DB10
:10059000203A00FA02F1002070479140C2F1200396
:1005A00020FA03F3194390407047202A06DBCB174B
:1005B000203A41FA02F043EAE07306E041FA02F31E
:1005C000D040C2F1200291400843194670470029EB
:1005D000A8BF7047401C490008BF20F001007047C9
:1005E00010B4B0FA80FC00FA0CF050EA010404BF29
:1005F00010BC704749B1CCF1200421FA04F411FA7F
:100600000CF118BF012121430843A3EB0C01CB1DC2
:100610004FEA00614FEA102042BF002010BC704733
:1006200000EBC35010440029A4BF10BC7047401C0D
:10063000490008BF20F0010010BC704710B5141E1F
:1006400073F1000408DA401C41F1000192185B418B
:100650001A4301D120F0010010BD2DE9F04D924662
:100660009B4611B1B1FA81F202E0B0FA80F2203279
:100670009046FFF78BFF04460F4640EA0A0041EA26
:100680000B0153465A46084313D0114653EA010062
:1006900019D0C8F140025046FFF744FD05460E460A
:1006A000504659464246FFF771FF084305D00120E6
:1006B00004E020463946BDE8F08D0020054346EAB7
:1006C000E0762C4337430A986305E40AA0EB080060
:1006D0000022FD0A44EA47540A3002D500200146B0
:1006E000E9E7010510196941DDE90845001969418B
:1006F000BDE8F04DA2E72DE9F04D81EA030404F0D6
:10070000004B21F0004514464FF0000A23F0004151
:1007100050EA050220D054EA01021DD0C5F30A5761
:100720000246C5F31303C1F31300C1F30A5640F4A4
:10073000801543F48013A7EB0608101BD64608F279
:10074000FD3873EB050002D308F1010801E09218AF
:100750005B41B8F1000F03DA00200146BDE8F08DDF
:1007600000204FF48011064684460EE0171B73EB01
:10077000050705D3121B63EB050306434CEA010C86
:1007800049084FEA300092185B4150EA0107EDD169
:1007900052EA030012D082EA040083EA050108430A
:1007A00005D0101BAB4106D20122002306E0002237
:1007B0004FF0004302E06FF0010253101AEB060005
:1007C0004CEB085110EB0A0041EB0B01BDE8F04D7A
:1007D000FFF734BFC1F30A52C1F3130140F2FF33F4
:1007E00041F480119A4202DA00200146704740F23B
:1007F00033439A42A2F2334202DC5242FFF792BCE8
:10080000FFF7C4BE30B5041E71F1000404DB4FF0E5
:100810000044404264EB0101141E73F1000405DB47
:100820001C464FF00043524263EB0403994208BF59
:10083000904230BD064C074D06E0E06840F00103F1
:1008400094E8070098471034AC42F6D3FFF752FC07
:100850006C4100088C41000870B50446006881684E
:10086000C943C90717D1816821F00101816000F0F7
:10087000A3FB05460AE000BF00F09EFB401B0228D8
:1008800004D920688068C043C00706D0206880680B
:10089000C043C007F0D0002070BDA06A40F0100037
:1008A000A062E06A40F00100E062012070BD00003B
:1008B000F8B500260446009600688168C943C90758
:1008C0002DD0816841F00101816016481649006809
:1008D000B0FBF1F000E0401E00900028FBD100F0DA
:1008E0006BFB054616E000BF00F066FB401B0228CC
:1008F00010D920688068C043C0070BD0A06A40F0C0
:100900001000A062E06A40F00100E06284F8246018
:100910000120F8BD20688068C043C007E4D10020F2
:10092000F8BD00000C00002040420F00FEE77047B9
:1009300072B6FEE7F8B50024009490F8242025460E
:10094000012A12D0012280F824204A681F23072A96
:100950000DD20668776B521E02EB820293409F43D2
:100960000B6893401F43776319E00220F8BD0668C7
:100970000D2A0AD2376BD21F02EB820293409F43AB
:100980000B6893401F43376309E0F76A0D3A02EBA7
:10099000820293409F430B6893401F43F7620A68AB
:1009A000072306680A2A0AD3F7680A3A02EB4202CA
:1009B00093409F438B6893401F43F76008E037697B
:1009C00002EB420293409F438B6893401F43376181
:1009D0000A68102A01D0112A20D1124B02689A42CB
:1009E00017D193681B0219D4936843F400039360F2
:1009F0000968102912D10C490C4A0968B1FBF2F1BF
:100A000001EB8101490000E0491E00910029FBD162
:100A100004E0816A41F020018162012480F82450C1
:100A20002046F8BD002401400C00002040420F0089
:100A30000068C06C704700002DE9F0414FF00007DE
:100A400004003D467ED0A06A002628B9E66284F8FC
:100A50002460204600F07EF82046FFF7FDFEA16AE4
:100A600001F01001014304D0A06A40F01000A06220
:100A700068E0A16A21F4885141F00201A162626834
:100A8000E169237B0A4347EA43010A43A1684FF423
:100A90008077B94208D0012906D0002194F814C00B
:100AA000BCF1010F02D00AE03946F7E7F3B1A36ABF
:100AB00043F02003A362E36A43F00103E362236887
:100AC000D3F804C02CF4694C4CEA010CC3F804C000
:100AD00023689968DFF870C001EA0C01114399603E
:100AE000A168B9420BD0012909D00CE0DFF85CC045
:100AF000A3690CEB43330B4343F40061DFE7218A26
:100B00000D05A5F580152168CB6A23F470032B43EE
:100B1000CB62216889680E4B1940914208D1E66288
:100B2000A16A21F0020141F00101A162BDE8F0815A
:100B3000A06A20F0020040F01000A062E06A40F0DD
:100B40000100E0620120F1E7FDF7E1FF00E0FFFFB7
:100B5000FE0E1FFF00B585B00021009101910291AA
:100B6000039100680E49884218D10E48816941F40A
:100B700000718161816901F400710491816941F022
:100B8000040181618069694600F00400049001203D
:100B9000009003200190044800F018F905B000BD52
:100BA0000024014000100240000801402DE9F843F4
:100BB00000270D460446009700F0FEF980462068A5
:100BC0008168C90508D5A06A40F02000A06284F8B9
:100BD00024700120BDE8F8834168C90503D4C06AC8
:100BE00010F4700F2AD0022000F046FD3B4909683E
:100BF000B1FBF0F62068036939490B424FEA610105
:100C00004FEAA1121FD1C3684FEA611C13EA0C0F0F
:100C100019D103690B4225D1C068104222D114209A
:100C200023E0681C0AD02DB100F0C6F9A0EB080043
:100C3000A84203D920680068800725D5206800688D
:100C40008007EED52DE003690B4202D1C168114245
:100C500006D0026923490A4206D1C068084203D17E
:100C6000542002E0292000E0FC204643009816E0D2
:100C7000681C11D02DB100F09FF9A0EB0800A8422C
:100C80000AD90098B04207D2A06A40F00400A062DE
:100C900084F8247003209DE70098401C0090B04227
:100CA000E6D321686FF012000860A06A40F400707B
:100CB000A06220688068C0F3424007280CD1207BE6
:100CC00050B9A06A20F48070A062A06AC00403D466
:100CD000A06A40F00100A06200207BE70C00002029
:100CE000244992244992240070B5044690F82400C7
:100CF00001280DD0012084F824002046FFF7D8FDFC
:100D000002004FF0000005D084F82400104670BDAA
:100D1000022070BDA16A40F20123994341F4807121
:100D2000A1621F4D23681F49AB4218D10E6816F40B
:100D3000702F14D0A66A46F48016A6620E68760557
:100D400005D5A66A26F4005646F48056A662A66A21
:100D5000F6040AD5E66A26F00606E66206E0A66A0A
:100D600026F48016A6625E68E9E7E06284F8240053
:100D70006FF00200186020688368C3F34243072BBA
:100D800005D1A84208D1096811F4702F04D08168F8
:100D900041F480118160B9E7816841F4A001F9E76D
:100DA000002801400424014070B5044600F004F915
:100DB0000546601C02D004480078044400F0FCF8AA
:100DC000401BA042FAD370BD000000202DE9F84F6F
:100DD000DFF8B8910024A9F1040B23460F2709F18D
:100DE000040AABF1040EC9E00125A5402A40AA423D
:100DF0007DD1674ED1F804C0ACEB0608B44532D0C3
:100E000014DCBCF1030F3AD009DCBCF1000F2AD08E
:100E1000BCF1010F1CD0BCF1020F31D11DE0BCF1BF
:100E2000110F17D0BCF1120F2AD119E0B8F5881FA5
:100E300019D006DCB8F5803F15D0B8F5801F1FD15A
:100E400011E0B8F5001F0ED0B8F5041F18D10AE064
:100E5000CB6815E0CB681B1D12E0CB6808330FE0B0
:100E6000CB680C330CE08B682BB1012B4FF00803DF
:100E700003D0456104E0042302E0056100E00023A3
:100E8000FF2A01D8064601E000F104064FEA840576
:100E900001D9A5F12005D6F8008007FA05FC28EA5B
:100EA0000C0803FA05F548EA0508C6F800804D6805
:100EB000ED0062D5374DAE6946F00106AE61AD6911
:100EC00024F0030605F001050095334D06EB050CF3
:100ED000DCF80850A607360F07FA06F825EA0805D9
:100EE000DFF8B880404503D14FF0000817E044E038
:100EF000DFF8AC80404502D14FF001080FE0DFF889
:100F0000A480404502D14FF0020808E0DFF8988045
:100F1000404502D14FF0030801E04FF0040808FA01
:100F200006F848EA0508CCF808804D68D9F8006052
:100F3000ED024D4601D5164300E096432E604D6804
:100F4000DAF80060AD02554601D5164300E096433D
:100F50002E604D68DBF80060AD035D4601D5164399
:100F600000E096432E604D68DEF80060ED037546A4
:100F700001D5164300E096432E60641C0D682A4696
:100F8000E5407FF431AFBDE8F88F00000804014070
:100F90000000111000100240000001400008014054
:100FA000000C01400010014000140140806808401E
:100FB00000D00120704700000148806870470000A1
:100FC0000000002070B5040025D094F83D000025F5
:100FD00020B984F83C50204600F078FA242084F8A8
:100FE0003D002068016821F001010160206801686E
:100FF00041F4004101602068016821F40041016072
:1010000000F098FC4D4A6168914201D84C4900E0DB
:101010004C49884201D2012070BD4B492368B0FB86
:10102000F1F15E6826F03F060E435E60636893420E
:1010300006D94FF4967359434FF47A73B1FBF3F129
:101040002368491C1E6A26F03F0631431962616815
:10105000914210D84900401EB0FBF1F2521CC2F37D
:101060000B02042A01D2042022E0B0FBF1F0401C64
:10107000C0F30B001CE0A268F2B301EBC10303EB69
:101080000116431EB3FBF6F35B1C43F480431B05C0
:1010900049D092B301EBC10202EB0111401EB0FB3B
:1010A000F1F0401CC0F30B0040F4804040F40040DD
:1010B0002168CA694CF6FF739A431043C861D4E9AA
:1010C000071001432068026822F0C002114301604A
:1010D000D4E9030101432068826848F2FF339A4350
:1010E00011438160D4E9050108432168CA6822F0F0
:1010F000FF021043C86001E00EE016E020680168BE
:1011000041F0010101602564202084F83D00256341
:1011100084F83E50002070BD01EB4106431EB3FB36
:10112000F6F35B1CB3E70120C2E701EB4101401E6F
:10113000B0FBF1F0401CC0F30B00B7E7A086010044
:1011400080841E0000093D0040420F002DE9FF4F42
:1011500083B00025DDE910799A4693460446DDF810
:1011600048800095FFF728FF064694F83D002028A8
:101170007CD11923012285492046009600F092FF78
:101180000028F5D194F83C0001286FD0012084F8A4
:101190003C0020680168C90703D1016841F00101E2
:1011A00001602068016821F400610160222084F858
:1011B0003D00402084F83E0025646762A4F82A9030
:1011C000608D20857248E062CDE9008653465A461C
:1011D0002046049900F068FE00287DD1208DDFF8BC
:1011E000B491202768B1012814D002282068016832
:1011F0001ED041F4806101602068416980690090DF
:10120000B6E02068416981690091016841F400718C
:101210000160ADE02068016821F48061016072B670
:101220002068416981690091016841F400710AE018
:1012300041F40061016072B62068416981690091E2
:10124000016821F48061016062B691E0032868D8EA
:1012500001280CD0022843464FF0000249462046A0
:1012600000960FD000F01EFFB0BB10E08BE03246BE
:101270004146204600F0BCFF70BB20680069616AEF
:1012800008706CE000F00EFF30BB72B634E02068EE
:10129000016821F48061016072B620680069616AAA
:1012A0000870606A401C6062208D401E2085608D41
:1012B000401E6085384846F2A8110068B0FBF1F086
:1012C000C0EBC00000EB80000090401E009008D0F2
:1012D00020684069C04300E029E040070CD5009831
:1012E000F3E744F8305F6773A573206940F020008E
:1012F000206162B625731AE02068016841F400712C
:10130000016020680069616A0870606A401C606260
:10131000218D491E2185618D491E618562B6216836
:101320001BE032464146204600F062FF18B1012022
:1013300007B0BDE8F08F20680069616A0870606AD4
:10134000401C6062218D491E2185618D491E618589
:1013500021684A69D24352070AD409690170606A58
:10136000401C6062208D401E2085608D401E60857F
:10137000208D00287FF46AAF84F83D7084F83E50D9
:1013800084F83C50D4E70220D2E7000002001000AD
:101390000000FFFF040001000C0000202DE9FF4FBA
:1013A00083B09A46DDE9119793460446DDF8408004
:1013B000FFF702FE054694F83D0020287FD119234F
:1013C000012240492046009500F06CFE002876D1AD
:1013D00094F83C00012872D0012084F83C00206879
:1013E0000168C90703D1016841F00101016020686B
:1013F000016821F400610160212084F83D00402053
:1014000084F83E0000262664C4F82480A4F82A90BC
:10141000608D20852C48E062CDE9007553465A4620
:101420002046049900F0BEFD70B930E02A463946E6
:10143000204600F015FF58B1206C042804D1206824
:10144000016841F400710160012007B0BDE8F08F30
:10145000606A216800780861606A401C6062218DC2
:10146000491E89B22185628D521E628522685369A8
:10147000DB435B070BD469B100781061606A401CE4
:101480006062208D401E2085608D401E6085208D0D
:101490000028CBD12A463946204600F0D7FD002847
:1014A000CAD154F83D0B016841F40071016020205D
:1014B00004F81E09E67766770020C6E7FFE70220FA
:1014C000C3E70000020010000000FFFF30B585B048
:1014D000002100910191029103911E4D03681E4C61
:1014E000122103221D48AB4216D1A36943F0080321
:1014F000A361A369039203F008030493C023CDE919
:1015000000316946FFF762FCE06940F40010E061D9
:10151000E06900F4001019E0114DAB4217D1A36946
:1015200043F00803A361A369039203F00803049343
:101530004FF44063CDE900316946FFF747FCE069AD
:1015400040F48000E061E06900F48000049005B0A0
:1015500030BD00000054004000100240000C01406B
:101560000058004002488168027811448160704749
:1015700000000020074810B5016841F0100101602B
:10158000032000F067F80F2000F006F800F024F8C0
:10159000002010BD0020024070B50D4D04464FF4F0
:1015A0007A712878B1FBF0F00A490968B1FBF0F0D4
:1015B00000F096FB48B9102C07D200222146501E9D
:1015C00000F028F800206C6070BD012070BD0000A4
:1015D000000000200C0000200C4808B5816941F093
:1015E00001018161816901F001010091C16941F04E
:1015F0008051C161C06900F080500090044841688A
:1016000021F0E06141F00071416008BD001002402E
:1016100000000140F0B40E4B1B680C46C3F30223DC
:10162000C3F10705042D00D90425191D072901D28E
:10163000002300E0DB1E012606FA05F1491E2140C9
:1016400099409E40761E16403143F0BC01F0C4BA6A
:101650000CED00E0064900F0070208684FF6FF03B2
:10166000184040EA0220034A104308607047000017
:101670000CED00E00000FA0510B501460020234CF7
:10168000012922D0022939D010291DD16168226890
:10169000D20119D51E48C1F38342C903805C0AD523
:1016A00061681B4AC1F34041921E515C194AB2FB6A
:1016B000F1F1484301E0184948436168490203D405
:1016C00040000321B0FBF1F010BD226AC2F30121FA
:1016D000012903D1920701D5C80310BD022905D104
:1016E000626A920702D549F6404010BD0329FCD139
:1016F00021688903F9D54FF2244010BD00F02AF982
:101700006168C1F38131491C4900DBE700100240E8
:101710005E3A000800127A0000093D002DE9F84306
:1017200005460078354CC00754D0E0690026C0005B
:1017300008D4E06940F08050E061E069012600F0E3
:10174000805000902E480168C90512D40168804677
:1017500041F480710160FFF72FFC074605E000BFF0
:10176000FFF72AFCC01B642823D8D8F80000C00566
:10177000F6D5206A10F4407021D0A98801F4407198
:1017800081421CD0206A1F49012220F440700A6067
:1017900000220A602062C00711D0FFF70DFC074647
:1017A00041F2883808E000BFFFF706FCC11B414545
:1017B00002D90320BDE8F883206A8007F4D5206AA7
:1017C000696820F44070084320621EB1E06920F08F
:1017D0008050E0612878800705D56068A96820F40A
:1017E0004040084360602878C00605D56068E96815
:1017F00020F48000084360600020DBE70010024016
:1018000000700040400442422DE9F0470F460500B9
:1018100061D0434E306800F00700B84209D230680A
:1018200020F0070038433060306800F00700B8420D
:1018300051D128683B4C810712D5400703D5606819
:1018400040F4E06060602878000703D5606840F4E9
:10185000605060606068A96820F0F0000843606034
:101860002878C00728D06868012810D0216802288D
:1018700010D0890700292EDA616821F003010143A5
:101880006160FFF799FB804641F288390DE02168DD
:101890008903EFE78901EDE7FFF78EFBA0EB080175
:1018A000494502D90320BDE8F0876068696800F007
:1018B0000C00B0EB810FEFD1306800F00700B842A8
:1018C0000BD9306820F0070038433060306800F0F2
:1018D0000700B84201D00120E5E72878400705D588
:1018E0006068E96820F4E0600843606028780007D9
:1018F00006D56068296920F4605040EAC100606044
:1019000000F038F86168084AC1F30311515CC8401F
:101910000649086006480068FFF73EFE0020C2E75F
:1019200000200240001002406E3A00080C00002027
:10193000040000200448054900684968044AC1F3CE
:101940000221515CC84070470C000020001002408A
:101950007E3A00080448054900684968044AC1F312
:10196000C221515CC84070470C00002000100240AA
:101970007E3A00080E4A51680E4801F00C03042B11
:1019800011D0082B0FD10C48C1F38343C903C05CAD
:101990000AD55168084AC1F34041921E515C054A7C
:1019A0005043B0FBF1F070470449484370470000D2
:1019B0000010024000127A004C3A000800093D0075
:1019C0002DE9F84F040070D02078C04DC00749D0F1
:1019D0006868C0F38100012807D06868C0F38100FF
:1019E000022809D16868C00306D52868800339D564
:1019F00060680028E7D035E06068B0F5803F0BD024
:101A000010B1B0F5A02F11D0286820F480302860E4
:101A1000286820F4802002E0286840F480302860A4
:101A2000606890B1FFF7C8FA06460AE0286840F4FB
:101A300080202860F0E700BFFFF7BEFA801B642813
:101A400073D828688003F7D50CE0FFF7B5FA06468F
:101A500005E000BFFFF7B0FA801B6428F0D82868C3
:101A60008003F7D420789A4E80074FF001094FF099
:101A7000000839D5686810F00C0F07D06868C0F30B
:101A80008100022809D16868C00306D4286880074D
:101A900014D52069012808D110E02069B0B1C6F83A
:101AA0000090FFF789FA074605E00AE1FFF784FA9C
:101AB000C01B0228C4D828688007F7D52868616948
:101AC00020F0F80040EAC10028600DE0C6F8008070
:101AD000FFF772FA074604E0FFF76EFAC01B022810
:101AE00023D828688007F7D4207800072CD57948B8
:101AF000A169D9B1C0F80090FFF75EFA074604E08B
:101B0000FFF75AFAC01B02280FD8686A8007F7D57A
:101B100071484FF4FA510068B0FBF1F0009000BF3B
:101B20000098411E0091FAD20EE080E0C0F80080DB
:101B3000FFF742FA074604E0FFF73EFAC01B02280F
:101B400075D8686A8007F7D42078400760D5E869BF
:101B50000027C00008D4E86940F08050E861E869D7
:101B6000012700F0805000905C480168C90513D43B
:101B70000168834641F480710160FFF71DFA8246D7
:101B800006E000BFFFF718FAA0EB0A0064284ED861
:101B9000DBF80000C005F5D5E06801280AD008B1DF
:101BA000052813D0286A20F001002862286A20F056
:101BB000040002E0286A40F001002862E06841F277
:101BC000883B98B1FFF7F8F982460BE0286A40F0AD
:101BD00004002862EEE700BFFFF7EEF9A0EB0A0170
:101BE00059455AD8286A8007F6D50CE0FFF7E4F982
:101BF000824605E0FFF7E0F9A0EB0A0159454CD811
:101C0000286A8007F6D41FB1E86920F08050E861A7
:101C1000E06988B36968C1F38101022944D00228D0
:101C2000C6F8608004D0FFF7C7F9044638E034E016
:101C3000FFF7C2F9074604E0FFF7BEF9C01B022810
:101C40002BD828688001F7D4206AB0F5803F05D1F1
:101C50006868A16820F4003008436860D4E908018E
:101C60000843696821F4741108436860C6F86090FD
:101C7000FFF7A2F9044606E025E000BFFFF79CF954
:101C8000001B022809D828688001F7D51BE000BF97
:101C9000FFF792F9001B022802D90320BDE8F88F54
:101CA00028688001F4D40EE00128F7D06868226A21
:101CB00000F48031914204D1616A00F470108842CE
:101CC00001D00120EAE70020E8E700000010024010
:101CD00000004242800442420C000020007000409C
:101CE00010B5401EB0F1807F01D3012010BD4FF030
:101CF000E02460610F21601700F06EFF0020A061FA
:101D000007202061002010BD70B5040004D094F8B5
:101D10004100002510B106E0012070BD84F840505C
:101D2000204600F023F8242084F841002068C16890
:101D300021F40051C160204600F0A4FE2068016932
:101D400021F4904101612068416921F02A0141613B
:101D50002068C16841F40051C1606564202084F8A6
:101D6000410084F842006563002070BD30B585B045
:101D7000002400940194029403940068144988425A
:101D800024D11448816941F480418161816901F461
:101D900080410491816941F00401816180690E4DA7
:101DA00000F0040004904FF40070009002200190B5
:101DB0000320039069462846FFF708F82815CDE967
:101DC0000004694628460294FFF700F805B030BDCC
:101DD0000038014000100240000801402DE9F8439E
:101DE000044690F841001F4616460D46202802D0B2
:101DF0000220BDE8F8837DB176B100206064212027
:101E000084F84100FFF7D8F8A6848046E684A068ED
:101E1000B0F5805F02D003E00120EAE7206910B14D
:101E20002E4600250EE000260CE08021204600F022
:101E300085FEA0B9AEB116F8010B21684860E08CB0
:101E4000401EE084E08C43464FF0000200970028DB
:101E5000EBD14FF04001204600F070FE30B103207E
:101E6000C7E735F8020BC0F30800E6E7202084F846
:101E700041000020BDE7FEE701684A69D2435205F0
:101E80000FD46FF480624A61002140F8301F202295
:101E900042738173026942F00402026101730120FE
:101EA00070470020704700002DE9F84F0446006895
:101EB00089460B9D01689846174641F48061016090
:101EC0002068016841F48071016000954FF0011BAA
:101ED0000022594620460A9B00F0E4F84FF4007AAD
:101EE00040B120680068C00501D5C4F840A00320B7
:101EF000BDE8F88F216809F0FE0008612B462849EB
:101F000020460A9A00F016F9F0BB20684169806902
:101F100000902A4620460A9900F0A2F940B1206CB0
:101F200004283AD12068016841F40071016034E06E
:101F3000FEB2B8F1010F09D02168380A08612A46BB
:101F400020460A9900F08CF90028E8D12068066143
:101F50002A4620460A9900F083F90028DFD120683C
:101F6000016841F4807101600095002259462046C5
:101F70000A9B00F097F80028B3D1216809F0FF0010
:101F800040F00100086100E007E02B4604492046CC
:101F90000A9A00F0CFF80028AAD00120A8E7000094
:101FA000020001002DE9F843044600680D46DDE912
:101FB000089701689846164641F4807101604B46C7
:101FC00000224FF001112046009700F06BF848B155
:101FD00020680068C00502D54FF40070206403201B
:101FE000BDE8F883216805F0FE0008613B464A46DB
:101FF0001549204600F09EF888B92068416980693B
:1020000000903A464946204600F02AF948B1206C33
:10201000042804D12068016841F4007101600120A6
:10202000DEE7F5B2B8F1010F09D02168300A086186
:102030003A464946204600F013F90028E7D12068C7
:1020400005610020CCE700000200010070B51646D3
:102050000D4604461EE02046FFF70EFF08B10120A2
:1020600070BD681C16D0FEF7A7FF801BA84200D8E1
:1020700085B920684069C04340070BD5002044F86B
:10208000300F20216173A073216941F0200121618B
:102090002073E4E720684069C0434007DBD4002098
:1020A00070BD00002DE9F047984617460D460446DE
:1020B000C1F30746DDF820902AE000BFB8F1FF3FEA
:1020C00026D0FEF779FFA0EB0901414502D8B8F10F
:1020D000000F1DD12068012E16D0806925EA00006E
:1020E0000004000C12D00020B84211D1002044F8A6
:1020F000300F20216173A073216941F0200121611B
:1021000020730120BDE8F0874069E7E70120EBE795
:102110002068012E0AD0806925EA00000004000C26
:1021200006D00020B842C9D00020EBE74069F3E7B1
:102130000120F7E72DE9F047984616460D4604467C
:102140004FF000094FF0200AC1F3074723E0206851
:102150004069C043400515D42068016841F400710E
:10216000016021686FF480604861C4F8309084F8A1
:102170003DA084F83E90216C41F00401216484F874
:102180003C9021E0701C06D0FEF716FFA0EB080083
:10219000B04203D816B1012F1FD021E02068012FD3
:1021A00015D0806925EA00000004000C18D000BF9B
:1021B00044F8309F84F80DA084F80E90216941F016
:1021C0002001216184F80C900120BDE8F08740696E
:1021D00025EA00000004000CEAD12068406901E013
:1021E0002068806925EA00000004000CAFD1ECE70C
:1021F0002DE9F041002590460E460446202728E0B0
:102200004069C043C0060CD454F8301B6FF0100076
:10221000486144F810596777A577206A20622577CE
:1022200014E0FEF7C9FEA0EB0800B04200D886B962
:1022300020684069C04340060BD544F8305F67739F
:10224000A573206940F02000206125730120BDE8BE
:10225000F08120684169C9434906D1D40020F6E7DE
:1022600070B516460D4604461EE02046FFF704FEF4
:1022700008B1012070BD681C16D0FEF79DFE801BC2
:10228000A84200D885B920684069C04300060BD534
:10229000002044F8300F20216173A073216941F0C0
:1022A000200121612073E4E720684069C0430006F3
:1022B000DBD4002070BD00003EB50024104800941F
:1022C000019402940D498460016004730475012532
:1022D00005614FF460214460C161FEF7ADFB08B1B8
:1022E000FEF726FBCDE90045694605480294FEF756
:1022F00021FB002801D0FEF71BFB3EBD002401405E
:102300004C00002000B585B00020019003901148DA
:10231000816941F020018161816901F0200104910E
:10232000816941F004018161816901F00401049136
:10233000816941F0080181618069694600F0080007
:10234000049080200090012002900348FEF73EFD9B
:1023500005B000BD00100240000801400D4810B556
:102360000B4901600C49416000214FF480428160BB
:10237000C0E9031241618161C1610162FEF722FE81
:10238000002803D0BDE81040FEF7D2BA10BD00000F
:10239000005400407C000020801A06000D4810B553
:1023A0000B4901600C49416000214FF4804281607B
:1023B000C0E9031241618161C1610162FEF702FE61
:1023C000002803D0BDE81040FEF7B2BA10BD0000EF
:1023D00000580040D0000020801A06000C4810B5BC
:1023E0000A4901604FF4E1314160002181600C2213
:1023F000C160C0E904128161C161FFF785FC00285A
:1024000003D0BDE81040FEF793BA10BD003801407C
:10241000240100202DE9FF4F724C9B46724AD4E9FB
:10242000035387B0642102F5FA6C4FF4FA7A00BFC7
:1024300002EB810652F82100A6F58056E046C6F868
:10244000700E0CEB8106A6F580565CF82170C6F87C
:10245000707E984200D20346A84200D90546491C26
:102460005145E5DBC4E903534FF4C875914609EBC8
:1024700085005E4F50F8040C4E46E06180213846DE
:10248000FEF794FD0128F9D056490622283107208D
:1024900000F0C2F85348B1462830017842788907E5
:1024A000890B41EA022781780F4346F82570C178ED
:1024B00002798907890B407941EA0221014348F8F2
:1024C0002510E669D4E90301B742A0EB010014D955
:1024D000FDF7EAFF0090B81BFDF7E6FF0099FDF756
:1024E00075FE4349FDF740FE2062FDF7EFFF616A8C
:1024F000081A606217D5002014E0FDF7D5FF0090A0
:10250000F01BFDF7D1FF0099FDF760FE3849FDF79C
:102510002BFE2062FDF7DAFF616A08446062FF2843
:1025200001DDFF2060620798A1694FF06637016006
:1025300008986178017009986169016021788BF8C9
:1025400000100020C4E90C000120861E60602948AC
:10255000FEF7CAFB31462748FEF728FB2548FEF761
:1025600067FA80B26080FDF7A4FF3A46224BFDF780
:1025700012FF6FF00B02FDF780FFD4E90C23FDF78B
:1025800063FEC4E90C016068401C60600128DEDD68
:10259000D4E905600B460DF1080C94F9007094F92C
:1025A0000110226B8CE8C30058F8251059F825005B
:1025B000CDE9000111A000F0FFFA6D1C5545FFF6B2
:1025C00056AF084A521C02F11701501E8DE8070051
:1025D000054A0B1F02F5FA60A16800F0B3FF0BB0CB
:1025E000BDE8F08F10000020CC180020000801404A
:1025F00000007F434C00002066660A40252E346CA4
:10260000662C25692C25692C25692C25692C2569C2
:102610002C25690A00000000F8B514460D46064650
:1026200001226946002000F047F801226946104661
:1026300000F042F822462946304600F03DF8F8BD49
:1026400010B500F047F80122C021022000F0E6F8A2
:1026500001220021032000F0E1F8012200210420E2
:1026600000F0DCF801220021052000F0D7F801225B
:102670000021062000F0D2F801220F21082000F0EE
:10268000CDF801220321092000F0C8F801222721FA
:102690000A2000F0C3F8012224210C2000F0BEF82B
:1026A000012224210D2000F0B9F801227F21BDE88C
:1026B0001040102000F0B2B80EB564238DE80E0073
:1026C00002460123AF210248FEF740FD0EBD000087
:1026D000D000002010B501224021092000F09EF812
:1026E00001224021BDE81040092000F097B8000009
:1026F0002DE9FE4F3F4F0024A7F5FA663E4D66E0F8
:10270000DFF8F88080214046FEF750FC0128F9D020
:102710003949062228310720FFF77EFF3648DFF8C7
:10272000E0A028304FF0FF38017842788907890B04
:1027300041EA022182784FF06639114346F82410AD
:10274000C17802798907890B407941EA0221014366
:1027500047F824100020C5E90C0001206FF00B0B96
:1027600068602848FEF7C0FA41462648FEF71EFA80
:102770002448FEF75DF980B26880FDF79AFE4A466C
:102780005346FDF708FE5A46FDF777FED5E90C23C0
:10279000FDF75AFDC5E90C016868401C6860012816
:1027A000DFDD0B4657F8241056F824002A6BCDE9DC
:1027B000000115A000F000FA56F8240029698842AB
:1027C00000D22861E968884200D9E860641CA868E2
:1027D000844295DB084A521C02F11701501E8DE815
:1027E00007000B1F0C4A0348A96800F0ABFEBDE8C8
:1027F000FE8F00009C2000201000002000080140F7
:1028000066660A404C000020252E346C662C256933
:102810002C25690A00000000CC18002007B584B000
:1028200005ABCDE900326421029102460123AE21BD
:102830000248FEF7B3FD07B000BD0000D000002045
:10284000FEE7FEE770B500240021204600F05AF8AC
:102850000025002000F0C2F86D1CEDB2802DF8D3E9
:10286000641CE4B2082CEFD370BD10B56420FEF7F1
:102870009BFAAE2000F0A0F8D52000F09DF8802053
:1028800000F09AF8A82000F097F83F2000F094F8A4
:10289000D32000F091F8002000F08EF8402000F0E6
:1028A0008BF8A12000F088F8C82000F085F8DA2025
:1028B00000F082F8122000F07FF8812000F07CF810
:1028C000CF2000F079F8D92000F076F8F12000F060
:1028D00073F8DB2000F070F8302000F06DF8A420D1
:1028E00000F06AF8A62000F067F88D2000F064F888
:1028F000142000F061F8AF2000F05EF8BDE8104051
:10290000FFF7A0BF10B50C4640F0B00000F054F83F
:10291000102040EA141000F04FF804F00F00BDE85A
:10292000104000F049B800002DE9F0410746CE0004
:102930004000083E801E15464FF0FF38F1B2C0B28D
:10294000FFF7E0FF1148002400EB05152819A0F55A
:10295000805090F8000E00F041F8641CE4B2082C9E
:10296000F4D308EB4700F1B2C0B2FFF7CBFF00246D
:102970002819A0F5805090F8080E00F02FF8641C7C
:10298000E4B2082CF4D3BDE8F0810000863A0008D8
:102990002DE9F04115460E460746002406E03019A1
:1029A000C1B23846FFF7C0FF641CE4B22A5D002ABA
:1029B000F5D1BDE8F081000001B584B001216422A9
:1029C00004A88DE807000B46002278210248FEF794
:1029D000E5FC05B000BD00007C00002001B584B01E
:1029E0000121642204A88DE807000B4640227821CB
:1029F0000248FEF7D3FC05B000BD00007C000020BB
:102A000070477047FEF7AEBD30B593B028216846D9
:102A1000FDF79FFB14210AA8FDF79BFB0025012071
:102A20000F9510951195010412958DE823000490DF
:102A30004FF4E010CDE90810022407946846FEF731
:102A4000BFFF08B172B6FEE70AA90F2081E8310086
:102A50004FF48060CDE90D0502210AA8FEF7D4FEEF
:102A600008B172B6FEE74FF4004011900F940FA822
:102A7000FEF754FE002801D072B6FEE713B030BD59
:102A80007047000070B5044600680169E26821F4EF
:102A90004051114301612169A068084361690843FD
:102AA0002168CA6841F20C639A430243CA602068F5
:102AB0004169A26921F44071114341611E492068B6
:102AC000884202D1FEF746FF01E0FEF733FF00EB3C
:102AD000C00101EB0012606864218000B2FBF0F3DA
:102AE000B3FBF1F36FF018067343B2FBF0F5B2FBE2
:102AF000F0F605EB8305322303EB0515B5FBF1F585
:102B0000B6FBF1F605F0F00505EB0615B2FBF0F6A5
:102B1000B2FBF0F0B0FBF1F06FF01802504306EB9F
:102B2000800003EB0010B0FBF1F0216800F00F0013
:102B30002844886070BD0000003801402DE9F04154
:102B4000984617460E460446069D27E0681C25D089
:102B50002DB1FEF731FAA0EB0800A8421ED920687B
:102B60000C3050E8001F21F4D07140E80012002A18
:102B7000F5D12068143050E8001F21F0010140E831
:102B80000012002AF5D1202084F8410084F8420088
:102B9000002084F840000320BDE8F0812068006830
:102BA00036EA000004D00020B842CFD00020F3E77E
:102BB0000120F9E7FEE700000FB4054B10B503A9AB
:102BC000044A029800F0DAF810BC5DF814FB00002B
:102BD000AD340008480000200907090E002804DB76
:102BE00000F1E02080F80014704700F00F0000F1C1
:102BF000E02080F8141D704702E008C8121F08C1C9
:102C0000002AFAD170477047002001E001C1121F6D
:102C1000002AFBD1704700002DE9FF5FDDE90220AB
:102C2000010DDDF838B0024318D044F61050A1F27F
:102C3000FF3141430D140F98012820D0A5EB0B0064
:102C4000401C5FEA000A4FF00004474EDFF81C9179
:102C5000A046504616D5CAF1000728E00F98012477
:102C600043A2012808D0002100980F9BC0E9002151
:102C7000C0E90243BDE8FF9F6FEA0B01F4E7CBF127
:102C80000000DEE7074612E0F80707D02246334689
:102C900040464946FDF77FFB80468946224633463B
:102CA00010461946FDF777FB04460E467F10002FAD
:102CB000EAD1DDE90201BAF1000F42464B4602DAE1
:102CC000FDF769FB01E0FDF716FD04460E46002204
:102CD000284BFDF797FD03D84FF0FF30014607E082
:102CE0000022254B20463146FDF7AEFAFDF772FD76
:102CF000102409E0002C0ADB0A220023FDF715FC52
:102D0000019B30321A55641E50EA0102F2D1641C54
:102D1000019AC4F1110314440F9A012A03D001222D
:102D200008430DD10AE0084304D000204FF0110BF6
:102D30000F9080E7A3EB0B056D1E0DE05B4504DDF6
:102D40004FF0000205F1010504E003DA4FF0000244
:102D5000A5F10105002AECD000980F99C0E90231D5
:102D6000C0E9004586E70000000024400000F03F75
:102D7000300000000000F0430000E03F2DE9FF4F6D
:102D800095B09B468946064600250FE2252877D157
:102D900000242746F84A0121059400E0044316F870
:102DA000013F203B01FA03F01042F7D130782A2886
:102DB00011D06FF02F033078A0F13002092A16D815
:102DC000059A44F0020402EB820203EB4202104433
:102DD000761C0590EFE759F8042B0592002A03DAD8
:102DE000504244F40054059044F00204761C3078BC
:102DF0002E2816D116F8010F44F004042A280DD00D
:102E00006FF02F023078A0F13003092B09D807EBBF
:102E1000870302EB4303C718761CF3E759F8047BDA
:102E2000761C30786C280FD006DC4C2817D0682828
:102E30000DD06A2814D104E0742810D07A280FD15C
:102E40000DE044F400140AE044F4801401E044F47A
:102E500040147278824202D104F58014761C761CEC
:102E6000307866280BD013DC582877D009DC00288E
:102E700075D04528F6D04628F4D047281AD19DE1D0
:102E800018E0632835D0642879D0652812D195E1FF
:102E9000702873D008DC6728F1D069286FD06E28BD
:102EA0000DD06F2806D1B5E073282CD0752875D0C9
:102EB000782874D05A46179990476D1C75E1C4F371
:102EC0000250022809D003280DD0D9F80010042898
:102ED0000DD00D6009F1040967E1D9F80010EA1777
:102EE000C1E90052F6E7D9F800100D80F2E70D7045
:102EF000F0E719F8041B8DF8001000208DF8010090
:102F0000EA46012003E059F804AB4FF0FF306107B7
:102F10004FF0000102D40DE008F101018846B942EA
:102F20000FDA8045F8DB1AF808100029F4D108E020
:102F300008F1010188468142FADB1AF808100029DD
:102F4000F6D105985B46A0EB080721463846179A4C
:102F500000F094FA284400EB080507E04DE029E171
:102F60000DE01AF8010B5A4617999047B8F101087D
:102F7000F7D25B4621463846179A13E142E00A220F
:102F80000092C4F302524FF0000A022A08D059F806
:102F900004CB032A4FEAEC710AD00DE029E02AE0C5
:102FA00009F1070121F00702F2E802C1914609E0A8
:102FB0000FFA8CFC4FEAEC71042A03D14FFA8CFC17
:102FC0004FEAEC71002907DA0A460021DCF1000C17
:102FD00061EB02012D2202E0220504D52B228DF89F
:102FE0000420012203E0E20701D02022F7E7904607
:102FF00059E00A2102E010220DE010214FF0000AF2
:1030000000910BE010224FF0000A44F0040408275E
:10301000009203E008224FF0000A0092C4F302522B
:10302000022A05D059F804CB0021032A08D009E070
:1030300009F1070121F00702F2E802C1914605E01B
:103040001FFA8CFC042A01D10CF0FF0C4FF0000891
:10305000220728D5702806D0009B83F0100353EA7E
:103060000A0305D00EE040228DF80420012208E07A
:103070005CEA010206D030228DF804208DF80500AC
:1030800002229046009B83F0080353EA0A030AD108
:103090005CEA010201D1620705D530228DF80420D7
:1030A0004FF001087F1E582804D034A003900EA8CA
:1030B00002900DE036A0F9E753466046009AFDF70E
:1030C00034FA84460398825C0298401E0290027093
:1030D0005CEA0100F0D1029806A9081A00F1200A62
:1030E000600702D524F4803400E00127574502DD53
:1030F000A7EB0A0000E0002000EB0A010090059811
:103100004144401A0590E00306D45B462146179AD5
:10311000059800F0B3F90544002706E001A85A46D7
:10312000C05D179990476D1C7F1C4745F6DBE00397
:103130000CD55B462146179A059800F09FF9054487
:1031400004E030205A46179990476D1C0099481E9C
:1031500000900029F5DC08E0029802995A460078B0
:10316000491C0291179990476D1CBAF10001AAF110
:10317000010AF1DC65E10000092801003031323339
:1031800034353637383961626364656600000000A3
:10319000303132333435363738394142434445468D
:1031A0000000000000F058F90544761C3078002833
:1031B0007FF4ECAD19B02846BDE8F08F620700D46B
:1031C000062709F1070222F0070CFCE80223E1467A
:1031D00003F000485FEA080C02D00FF2702C0DE0FB
:1031E0005FEA045C02D50FF2682C07E05FEAC47C5A
:1031F00002D00FF2602C01E0AFF2700C4FF0FF38FC
:1032000023F00043CDF850C065280CD006DC4528DB
:1032100009D046281DD047283DD13DE0662818D06A
:1032200067287ED138E00021112F01DB112000E05A
:10323000781CCDE9000106A90EA8FFF7EDFCDDE939
:103240000F010E9A03910021009207F1010A0491E7
:103250004DE04FF000400097CDE9011006A90EA8FF
:10326000FFF7DAFCDDE90F0203920E9B11990022B1
:10327000DDF80CA00093049211B9791C00EB010A4F
:10328000B7EB0A0004D4C0F1FF3007F1010A049043
:10329000AAEB0700019044E0012F00DA012700218A
:1032A000112F01DD112000E03846CDE9000106A90B
:1032B0000EA8FFF7B1FCDDE90F010E9A0391002182
:1032C00004910092BA4621070CD40399514500DAC3
:1032D0008A46BAF1010F05DD009AAAF10101515C9D
:1032E000302908D0B84202DA10F1040F06DA0121C1
:1032F000CDE9011015E0AAF10101E9E7002805DC9C
:10330000049901440491AAEB000102E0411C5145DB
:1033100000DD8A460499401A401C01904FF000409D
:103320000290200704D40198504501DBCDF80480B9
:1033300000208DF84F0002980DF14F07B0F1004FBB
:1033400025D02B200E9002984FF0020800280CDAAE
:10335000404202902D200E9007E00A210298FDF7CE
:10336000CEF83031029007F8011DB8F10001A8F144
:103370000108F2DC02980028EFD1791E0E9808703F
:10338000307800F0200040F0450007F8020D12A848
:10339000C01B00F107081498007800B1012000EB71
:1033A0000A01019801EBE07105984144401A401E62
:1033B0000590E00306D45B462146179A059800F075
:1033C0005DF805441498007818B15A46179990474B
:1033D0006D1CE00324D55B462146179A059800F042
:1033E0004DF805441CE00498002807DBDDE90301E3
:1033F000884203DD0098405C179901E0179930205E
:103400005A469047049805F10105401C0490019824
:10341000401E019004D12E205A46179990476D1CEA
:10342000BAF10001AAF1010ADDDC05E017F8010B91
:103430005A46179990476D1CB8F10001A8F1010890
:10344000F4DC5B462146179A0598ABE62D00000098
:103450002B000000200000002DE9F041044600256B
:103460001E461746880404D405E039462020B0479C
:103470006D1C641EF9D52846BDE8F0812DE9F041A8
:10348000044600251E469046C80301D5302700E0BB
:103490002027880404D505E041463846B0476D1C16
:1034A000641EF9D52846BDE8F081000013B54FF63B
:1034B000FF73012269460248FEF790FC00981CBD8C
:1034C000240100201FB5FEF755F8FFF79DFAFEF71F
:1034D00019FFFEF743FFFEF761FFFEF7EDFEFEF773
:1034E0007DFFFFF7C2F908A201210420FFF750FA7F
:1034F000FFF7A6F8FFF7FCF803AB01AA02A968469C
:10350000FEF788FFF8E700006A696B6C690000004D
:103510002DE9F8418046DDE90706009017460C4684
:10352000099D404600F0EEF933463A4621464046B2
:1035300000F01EFA2068A84200DB28462060BDE8A3
:10354000F88100002DE9FF4FBFB00E4600211C4658
:1035500008464C9D04E03F9A52F82020401C11443C
:10356000B042F8DBB1FBF6F20020E14906E03F9BF8
:1035700053F820309B1A41F82030401CB042F6DB53
:1035800000204FF4F87C00BF01EB800251F820309E
:103590005768E3463B44D2E902723A441A44D317CF
:1035A00002EB9372921041F82020401C5845EBDB4F
:1035B000D04A00204FF4F77301EB800751F820C088
:1035C0007F688946A7EB0C0742F82070401C9842A0
:1035D000F2DD002002EB800752F820107F689A4647
:1035E000394401EBD171491042F82010401C50457C
:1035F000F0DBC14F0020964600230146421D08E043
:10360000A1EB00085EF821C037F81880491C0CFBBC
:1036100018339142F4DB40F27A4193FBF1F14EF81A
:103620002010401C7346B0F5F47FE5DD0022114602
:103630004FEA0A0753F82100002800DC4042491CE9
:1036400002445145F6DD40F2EF1392FBF3F00822FD
:10365000CDE9000205210291A64A3DA912A8FFF773
:1036600057FF00213D9B12A88E46022B1BDB012237
:103670000AE000BF00EB820C50F822705CF804CC2A
:10368000521CA7EB0C0739449A42F3DB5A1E91FBFC
:10369000F2F141F2707292FBF1F24D990A604E9A8A
:1036A0000121117005E04D9A944911604E9A82F8FB
:1036B00000E0002107E000BF50F8212021AF921C5C
:1036C00047F82120491C9942F6DB0020C8460BE050
:1036D0003F9951F8201048F82010419951F82020C6
:1036E000874941F82020401CB042F1DB00221646F9
:1036F00028E000BF21A84FF0010950F826004FF044
:103700008077411D51451CDCA0F1050CBCF1000F78
:1037100017DD401F0FE000BF58F820C0BC4509DA94
:10372000B9F1000F01D04FF0000967460DF10C0C04
:103730004CF82600401C8842EEDBB9F1000F00D1A6
:10374000521C761C9E42D5DB022A06DA6B482060AA
:1037500085F800E043B0BDE8F08FDFF8A4C1002099
:1037600008EB800158F820304E68E1463344D1E937
:10377000026131441944CB1701EB9371891048F869
:1037800020100CEB80035CF820605F683E44D3E9B6
:1037900002733B443344DE1703EB96739B104CF8E3
:1037A0002030401C5845DBDB00200DF1E00B3E9043
:1037B00000214BF82010401C0528F9DB00204FF4B5
:1037C000FA7309E003A951F82010994203DD4B4830
:1037D000206000208AE0401C9042F3DB0023A2F12D
:1037E000010A61E003A800EB830650F823E0766845
:1037F0004FF07F42A6EB0E00114630900A2852DDB2
:103800007046CC460DE000BF58F820708F4201DDB5
:10381000394633905CF82070974201DD3A46329089
:10382000401C8642F0DC59F826C059F82E00019061
:10383000ACEB0000DDF8C8C0ACEB0E077843309F5E
:1038400090FBF7F7019807EB000C329F59F82770AF
:10385000A7EB0C07029758F8260058F82E60DDF801
:10386000CCC0801BACEB0E077843309F90FBF7F089
:103870003044329E029F58F826604F43301A50431E
:10388000F911C01100280EDD3E9A052A0BDA51B15C
:1038900001EB8101890091FBF0F23E984BF820206A
:1038A0003E98401C3E905B1C53459BDB58463E991E
:1038B00000F094F83E9800EBD070401001280ADD2B
:1038C0000BEB80025BF8200052F8042C104400EB54
:1038D000D070401001E05BF82000C11EB529BFF494
:1038E00076AF05493E31085C20600120287031E741
:1038F0002C0900206C0100207640000819FCFFFF15
:10390000FC1000202DE9F043814600240120DDF861
:103910001C805E1E0C6026E052F82070474521DDB9
:1039200002EB800454F8044CA7421BDD012500E0A3
:103930006D1C44199C4203DA52F824C06745F7D045
:10394000054452F82550AF420ADD0D680F2D07DA05
:103950004FEA850C6D1C0D6049F80C00601C02E0FC
:10396000204600E0401CB042D6DBBDE8F0830000FA
:103970002DE9F0431E4613460C460A6805460146EB
:10398000184600F045F84FF0FF3840461CE00A4664
:10399000411CC6F10009216013E000BF55F82170F9
:1039A000431C19D055F82030FB1AB34201DC4B45BB
:1039B00006DA23684FEA830C5B1C236045F80C7021
:1039C000491C9142EADB401C21688142DFDC284629
:1039D000BDE8F04300F002B84346E5E730B5012307
:1039E00012E000BF50F823401A4602E040F822508F
:1039F000521E002A05DD00EB820555F8045CA54245
:103A0000F4DC40F822405B1C8B42EBDB30BD000055
:103A1000F0B5012416E000BF51F82450234602E01F
:103A200041F823605B1E002B09DD01EB830650F893
:103A3000257056F8046C50F826C06745F0DC41F854
:103A40002350641C9442E7DBF0BD0102020304052D
:103A5000060708090A0B0C0D0E0F101001020203D5
:103A60000405060708090A0B0C0D0E0F10100000C4
:103A7000000000000000010203040607080900001E
:103A8000000001020304000000000000000000002C
:103A9000000000000000000000F80000000000002E
:103AA00000333000000000100C06100C060000006F
:103AB00000000000000040C07840C0784000043F93
:103AC00004043F040400007088FC08300000001863
:103AD00020FF211E0000F008F000E0180000002187
:103AE0001C031E211E0000F00888700000001E212B
:103AF00023241927211010160E00000000000000DA
:103B0000000000000000000000E0180402000000B7
:103B100000071820400000020418E00000000040E8
:103B2000201807000000404080F080404000020262
:103B3000010F01020200000000F00000000001017E
:103B4000011F01010100000000000000000080B022
:103B500070000000000000000000000000000001F4
:103B6000010101010101000000000000000000301F
:103B700030000000000000000000806018040060B9
:103B800018060100000000E010080810E000000F17
:103B9000102020100F00001010F80000000000207E
:103BA000203F2020000000700808088870000030C6
:103BB000282422213000003008888848300000186E
:103BC000202020110E000000C02010F80000000787
:103BD0000424243F240000F80888880808000019FD
:103BE000212020110E0000E0108888180000000F2E
:103BF000112020110E0000380808C8380800000005
:103C0000003F000000000070880808887000001C59
:103C1000222121221C0000E010080810E000000012
:103C2000312222110F00000000C0C000000000007F
:103C300000303000000000000080000000000000A4
:103C4000806000000000000080402010080000019B
:103C5000020408102000404040404040400004045E
:103C60000404040404000008102040800000002028
:103C7000100804020100007048080808F000000065
:103C8000003036010000C030C828E810E0000718F6
:103C9000272423140B000000C038E0000000203C63
:103CA00023020227382008F8888888700000203F07
:103CB000202020110E00C03008080808380007181E
:103CC00020202010080008F808080810E000203F15
:103CD000202020100F0008F88888E8081000203FF6
:103CE00020202320180008F88888E8081000203FCA
:103CF000200003000000C030080808380000071842
:103D00002020221E020008F808000008F808203FC2
:103D1000210101213F20000808F8080800000020C8
:103D2000203F2020000000000808F8080800C0809C
:103D300080807F00000008F888C028180800203F15
:103D400020012638200008F8080000000000203F6D
:103D500020202020300008F8F800F8F80800203F64
:103D6000003F003F200008F830C00008F808203F5E
:103D7000200007183F00E01008080810E0000F10AE
:103D8000202020100F0008F808080808F000203F45
:103D9000210101010000E01008080810E0000F18E0
:103DA000242438504F0008F8888888887000203F05
:103DB0002000030C30200070880808083800003804
:103DC000202121221C00180808F80808180000000B
:103DD000203F2000000008F808000008F808001F35
:103DE000202020201F000878880000C83808000024
:103DF00007380E010000F80800F80008F800033C3E
:103E00000700073C03000818688080681808203005
:103E10002C03032C30200838C800C83808000000E4
:103E2000203F2000000010080808C838080020388B
:103E3000262120201800000000FE020202000000DF
:103E4000007F40404000000C30C000000000000037
:103E500000010638C00000020202FE00000000401F
:103E600040407F0000000000040202020400000045
:103E70000000000000000000000000000000808042
:103E8000808080808080000202040000000000002A
:103E90000000000000000000808080800000001909
:103EA000242222223F2008F8008080000000003FEA
:103EB000112020110E000000008080800000000E04
:103EC000112020201100000000808088F800000EE2
:103ED000112020103F200000808080800000001F03
:103EE000222222221300008080F088888818002077
:103EF000203F202000000000808080808000006B38
:103F000094949493600008F8008080800000203F23
:103F1000210000203F200080989800000000002031
:103F2000203F20200000000000809898000000C082
:103F30008080807F000008F8000080808000203FA3
:103F400024022D302000000808F8000000000020A6
:103F5000203F202000008080808080808000203FE3
:103F600020003F20003F8080008080800000203FB4
:103F7000210000203F200000808080800000001F82
:103F8000202020201F00808000808000000080FF13
:103F9000A12020110E000000008080808000000E13
:103FA000112020A0FF808080800080808000202061
:103FB0003F212000010000008080808080000033CD
:103FC000242424241900008080E080800000000068
:103FD000001F202000008080000000808000001F63
:103FE000202020103F208080800000808080000101
:103FF0000E300806010080800080008080800F3035
:104000000C030C300F0000808000808080000020B6
:10401000312E0E31200080808000008080808081E1
:104020008E70180601000080808080808000002152
:10403000302C2221300000000000807C02020000B1
:104040000000003F404000000000FF0000000000B2
:104050000000FF0000000002027C80000000004021
:10406000403F0000000000060101020204040000BD
:1040700000000000000029001401000214012900C2
:104080000000000000000000000000000000000030
:104090000000000000000000000000000000000020
:1040A0000000000000000000000000000000000010
:1040B000000000005F5F5F6060606161616161627C
:1040C00062626262636363636363636364646464C0
:1040D00064646464646464646464646464646464A0
:1040E00063636363636363636262626262626161AA
:1040F0006161606060605F5F5F5E5E5E5D5D5D5CD4
:104100005C5C5B5B5A5A5959595858575756565523
:10411000555454535252515150504F4E4E4D4C4C99
:104120004B4A4A4948484746454544434242414034
:104130003F3E3E3D3C3B3A393838373635343332F2
:1041400031302F2E2D2C2B2A2928272625242322D7
:10415000211F1E1D1C1B1A19171615141311100FE1
:104160000E0C0B0A09070605030201008C4100082A
:10417000000000204C000000F82B0008D841000887
:104180004C000020242C0000082C00080100000036
:1041900010000000000000000024F40000000000F7
:1041A00000000000F401000000000000FFFF030019
:1041B00000000000000000000000000000000000FF
:1041C00000000000000000000000000000000000EF
:0841D0000000000000000000E7
:04000005080000ED02
:00000001FF
